{
  "contractName": "Tree",
  "abi": [
    {
      "constant": false,
      "inputs": [
        {
          "name": "id",
          "type": "string"
        }
      ],
      "name": "topUp",
      "outputs": [],
      "payable": true,
      "stateMutability": "payable",
      "type": "function"
    },
    {
      "constant": false,
      "inputs": [
        {
          "name": "id",
          "type": "string"
        },
        {
          "name": "link",
          "type": "string"
        },
        {
          "name": "original_distributor",
          "type": "address"
        }
      ],
      "name": "addFile",
      "outputs": [],
      "payable": true,
      "stateMutability": "payable",
      "type": "function"
    },
    {
      "constant": false,
      "inputs": [
        {
          "name": "fileId",
          "type": "string"
        },
        {
          "name": "distrib",
          "type": "address"
        }
      ],
      "name": "getDisId",
      "outputs": [
        {
          "name": "",
          "type": "string"
        }
      ],
      "payable": false,
      "stateMutability": "nonpayable",
      "type": "function"
    },
    {
      "constant": false,
      "inputs": [
        {
          "name": "fileId",
          "type": "string"
        },
        {
          "name": "distrib",
          "type": "address"
        }
      ],
      "name": "getChildrenNo",
      "outputs": [
        {
          "name": "",
          "type": "bytes32"
        }
      ],
      "payable": false,
      "stateMutability": "nonpayable",
      "type": "function"
    },
    {
      "constant": false,
      "inputs": [
        {
          "name": "id",
          "type": "string"
        },
        {
          "name": "invitee",
          "type": "address"
        }
      ],
      "name": "addDistributor",
      "outputs": [
        {
          "name": "",
          "type": "bool"
        }
      ],
      "payable": false,
      "stateMutability": "nonpayable",
      "type": "function"
    },
    {
      "constant": false,
      "inputs": [
        {
          "name": "id",
          "type": "string"
        },
        {
          "name": "distrib",
          "type": "address"
        }
      ],
      "name": "banDistributor",
      "outputs": [],
      "payable": false,
      "stateMutability": "nonpayable",
      "type": "function"
    },
    {
      "constant": true,
      "inputs": [],
      "name": "owner",
      "outputs": [
        {
          "name": "",
          "type": "address"
        }
      ],
      "payable": false,
      "stateMutability": "view",
      "type": "function"
    },
    {
      "constant": false,
      "inputs": [
        {
          "name": "fileId",
          "type": "string"
        },
        {
          "name": "disId",
          "type": "string"
        }
      ],
      "name": "makePayment",
      "outputs": [
        {
          "name": "",
          "type": "bool"
        }
      ],
      "payable": false,
      "stateMutability": "nonpayable",
      "type": "function"
    },
    {
      "constant": true,
      "inputs": [
        {
          "name": "inStr",
          "type": "string"
        },
        {
          "name": "v",
          "type": "uint256"
        }
      ],
      "name": "appendUintToString",
      "outputs": [
        {
          "name": "str",
          "type": "string"
        }
      ],
      "payable": false,
      "stateMutability": "view",
      "type": "function"
    },
    {
      "constant": false,
      "inputs": [
        {
          "name": "id",
          "type": "string"
        }
      ],
      "name": "getFile",
      "outputs": [
        {
          "name": "",
          "type": "string"
        }
      ],
      "payable": false,
      "stateMutability": "nonpayable",
      "type": "function"
    },
    {
      "constant": false,
      "inputs": [
        {
          "name": "account",
          "type": "address"
        }
      ],
      "name": "getBalance",
      "outputs": [
        {
          "name": "",
          "type": "uint256"
        }
      ],
      "payable": false,
      "stateMutability": "nonpayable",
      "type": "function"
    },
    {
      "constant": true,
      "inputs": [],
      "name": "token",
      "outputs": [
        {
          "name": "",
          "type": "address"
        }
      ],
      "payable": false,
      "stateMutability": "view",
      "type": "function"
    },
    {
      "inputs": [
        {
          "name": "rate",
          "type": "uint256"
        },
        {
          "name": "lowFundCap",
          "type": "uint256"
        }
      ],
      "payable": false,
      "stateMutability": "nonpayable",
      "type": "constructor"
    },
    {
      "anonymous": false,
      "inputs": [
        {
          "indexed": false,
          "name": "id",
          "type": "string"
        }
      ],
      "name": "lowFunds",
      "type": "event"
    },
    {
      "anonymous": false,
      "inputs": [
        {
          "indexed": false,
          "name": "id",
          "type": "string"
        }
      ],
      "name": "noFunds",
      "type": "event"
    },
    {
      "anonymous": false,
      "inputs": [
        {
          "indexed": false,
          "name": "disId",
          "type": "string"
        }
      ],
      "name": "checkForPayment",
      "type": "event"
    },
    {
      "anonymous": false,
      "inputs": [
        {
          "indexed": false,
          "name": "claimant",
          "type": "address"
        },
        {
          "indexed": false,
          "name": "amount",
          "type": "uint256"
        }
      ],
      "name": "madePayment",
      "type": "event"
    },
    {
      "anonymous": false,
      "inputs": [
        {
          "indexed": false,
          "name": "parentAddress",
          "type": "address"
        },
        {
          "indexed": false,
          "name": "newAddress",
          "type": "address"
        }
      ],
      "name": "addedDistributor",
      "type": "event"
    },
    {
      "anonymous": false,
      "inputs": [
        {
          "indexed": false,
          "name": "original_distributor",
          "type": "address"
        }
      ],
      "name": "newFile",
      "type": "event"
    },
    {
      "anonymous": false,
      "inputs": [
        {
          "indexed": false,
          "name": "banned_distributor",
          "type": "address"
        }
      ],
      "name": "distributorBanned",
      "type": "event"
    }
  ],
  "bytecode": "0x606060405234156200001057600080fd5b60405160408062005d6f8339810160405280805190602001909190805190602001909190505033600260006101000a81548173ffffffffffffffffffffffffffffffffffffffff021916908373ffffffffffffffffffffffffffffffffffffffff1602179055508160048190555080600381905550620000a3620000eb6401000000000262002750176401000000009004565b600560006101000a81548173ffffffffffffffffffffffffffffffffffffffff021916908373ffffffffffffffffffffffffffffffffffffffff160217905550505062000124565b6000620000f762000113565b604051809103906000f08015156200010e57600080fd5b905090565b604051611a43806200432c83390190565b6141f880620001346000396000f300606060405260043610620000c7576000357c0100000000000000000000000000000000000000000000000000000000900463ffffffff16806309cc555114620000cc578063357f81cf14620000f15780634249338f14620001a7578063647e07911462000273578063791d8d6214620002df5780638888efb114620003475780638da5cb5b1462000397578063ba9b92f814620003ef578063c80667e3146200044c578063e0876aa81462000531578063f8b2cb4f14620005de578063fc0c546a146200062e575b600080fd5b620000ef6004808035906020019082018035906020019190919290505062000686565b005b620001a5600480803590602001908201803590602001908080601f0160208091040260200160405190810160405280939291908181526020018383808284378201915050505050509190803590602001908201803590602001908080601f0160208091040260200160405190810160405280939291908181526020018383808284378201915050505050509190803573ffffffffffffffffffffffffffffffffffffffff1690602001909190505062000748565b005b3415620001b357600080fd5b620001f56004808035906020019082018035906020019190919290803573ffffffffffffffffffffffffffffffffffffffff1690602001909190505062000c46565b6040518080602001828103825283818151815260200191508051906020019080838360005b83811015620002375780820151818401526020810190506200021a565b50505050905090810190601f168015620002655780820380516001836020036101000a031916815260200191505b509250505060405180910390f35b34156200027f57600080fd5b620002c16004808035906020019082018035906020019190919290803573ffffffffffffffffffffffffffffffffffffffff1690602001909190505062000d5e565b60405180826000191660001916815260200191505060405180910390f35b3415620002eb57600080fd5b6200032d6004808035906020019082018035906020019190919290803573ffffffffffffffffffffffffffffffffffffffff1690602001909190505062000dd1565b604051808215151515815260200191505060405180910390f35b34156200035357600080fd5b620003956004808035906020019082018035906020019190919290803573ffffffffffffffffffffffffffffffffffffffff1690602001909190505062001502565b005b3415620003a357600080fd5b620003ad62001648565b604051808273ffffffffffffffffffffffffffffffffffffffff1673ffffffffffffffffffffffffffffffffffffffff16815260200191505060405180910390f35b3415620003fb57600080fd5b620004326004808035906020019082018035906020019190919290803590602001908201803590602001919091929050506200166e565b604051808215151515815260200191505060405180910390f35b34156200045857600080fd5b620004b3600480803590602001908201803590602001908080601f0160208091040260200160405190810160405280939291908181526020018383808284378201915050505050509190803590602001909190505062001d7a565b6040518080602001828103825283818151815260200191508051906020019080838360005b83811015620004f5578082015181840152602081019050620004d8565b50505050905090810190601f168015620005235780820380516001836020036101000a031916815260200191505b509250505060405180910390f35b34156200053d57600080fd5b620005606004808035906020019082018035906020019190919290505062002023565b6040518080602001828103825283818151815260200191508051906020019080838360005b83811015620005a257808201518184015260208101905062000585565b50505050905090810190601f168015620005d05780820380516001836020036101000a031916815260200191505b509250505060405180910390f35b3415620005ea57600080fd5b62000618600480803573ffffffffffffffffffffffffffffffffffffffff169060200190919050506200217f565b6040518082815260200191505060405180910390f35b34156200063a57600080fd5b620006446200226a565b604051808273ffffffffffffffffffffffffffffffffffffffff1673ffffffffffffffffffffffffffffffffffffffff16815260200191505060405180910390f35b60003373ffffffffffffffffffffffffffffffffffffffff16600260009054906101000a900473ffffffffffffffffffffffffffffffffffffffff1673ffffffffffffffffffffffffffffffffffffffff16141515620006e557600080fd5b60045434029050806000848460405180838380828437820191505092505050908152602001604051809103902060020154016000848460405180838380828437820191505092505050908152602001604051809103902060020181905550505050565b6200075262002590565b6200075c620025d9565b3373ffffffffffffffffffffffffffffffffffffffff16600260009054906101000a900473ffffffffffffffffffffffffffffffffffffffff1673ffffffffffffffffffffffffffffffffffffffff16141515620007b957600080fd5b84600115156000826040518082805190602001908083835b602083101515620007f85780518252602082019150602081019050602083039250620007d1565b6001836020036101000a038019825116818451168082178552505050505050905001915050908152602001604051809103902060010160149054906101000a900460ff161515141515156200084c57600080fd5b6080604051908101604052808681526020013373ffffffffffffffffffffffffffffffffffffffff1681526020016001151581526020016004543402815250925060c0604051908101604052803373ffffffffffffffffffffffffffffffffffffffff1681526020018573ffffffffffffffffffffffffffffffffffffffff1681526020016000151581526020016001151581526020016040805190810160405280600181526020017f300000000000000000000000000000000000000000000000000000000000000081525081526020016000600102600019168152509150826000876040518082805190602001908083835b60208310151562000967578051825260208201915060208101905060208303925062000940565b6001836020036101000a03801982511681845116808217855250505050505090500191505090815260200160405180910390206000820151816000019080519060200190620009b89291906200264b565b5060208201518160010160006101000a81548173ffffffffffffffffffffffffffffffffffffffff021916908373ffffffffffffffffffffffffffffffffffffffff16021790555060408201518160010160146101000a81548160ff02191690831515021790555060608201518160020155905050816000876040518082805190602001908083835b60208310151562000a68578051825260208201915060208101905060208303925062000a41565b6001836020036101000a038019825116818451168082178552505050505050905001915050908152602001604051809103902060030160008673ffffffffffffffffffffffffffffffffffffffff1673ffffffffffffffffffffffffffffffffffffffff16815260200190815260200160002060008201518160000160006101000a81548173ffffffffffffffffffffffffffffffffffffffff021916908373ffffffffffffffffffffffffffffffffffffffff16021790555060208201518160010160006101000a81548173ffffffffffffffffffffffffffffffffffffffff021916908373ffffffffffffffffffffffffffffffffffffffff16021790555060408201518160010160146101000a81548160ff02191690831515021790555060608201518160010160156101000a81548160ff021916908315150217905550608082015181600201908051906020019062000bc79291906200264b565b5060a082015181600301906000191690559050507feb6b4a4e6ab104d8cc179561784a96fcc5526a9cf1d69be832c5505fca6cf2b084604051808273ffffffffffffffffffffffffffffffffffffffff1673ffffffffffffffffffffffffffffffffffffffff16815260200191505060405180910390a1505050505050565b62000c50620026d2565b6000848460405180838380828437820191505092505050908152602001604051809103902060030160008373ffffffffffffffffffffffffffffffffffffffff1673ffffffffffffffffffffffffffffffffffffffff1681526020019081526020016000206002018054600181600116156101000203166002900480601f01602080910402602001604051908101604052809291908181526020018280546001816001161561010002031660029004801562000d505780601f1062000d245761010080835404028352916020019162000d50565b820191906000526020600020905b81548152906001019060200180831162000d3257829003601f168201915b505050505090509392505050565b600080848460405180838380828437820191505092505050908152602001604051809103902060030160008373ffffffffffffffffffffffffffffffffffffffff1673ffffffffffffffffffffffffffffffffffffffff1681526020019081526020016000206003015490509392505050565b600062000ddd620025d9565b600115156000868660405180838380828437820191505092505050908152602001604051809103902060030160008573ffffffffffffffffffffffffffffffffffffffff1673ffffffffffffffffffffffffffffffffffffffff16815260200190815260200160002060010160149054906101000a900460ff1615151415151562000e6757600080fd5b600115156000868660405180838380828437820191505092505050908152602001604051809103902060030160008573ffffffffffffffffffffffffffffffffffffffff1673ffffffffffffffffffffffffffffffffffffffff16815260200190815260200160002060010160159054906101000a900460ff1615151415151562000ef157600080fd5b600115156001868660405180838380828437820191505092505050908152602001604051809103902060009054906101000a900460ff161515141515620014a45760016000868660405180838380828437820191505092505050908152602001604051809103902060030160003373ffffffffffffffffffffffffffffffffffffffff1673ffffffffffffffffffffffffffffffffffffffff1681526020019081526020016000206003015460019004016001026000868660405180838380828437820191505092505050908152602001604051809103902060030160003373ffffffffffffffffffffffffffffffffffffffff1673ffffffffffffffffffffffffffffffffffffffff168152602001908152602001600020600301816000191690555060c0604051908101604052803373ffffffffffffffffffffffffffffffffffffffff1681526020018473ffffffffffffffffffffffffffffffffffffffff168152602001600015158152602001600115158152602001620011e76000888860405180838380828437820191505092505050908152602001604051809103902060030160003373ffffffffffffffffffffffffffffffffffffffff1673ffffffffffffffffffffffffffffffffffffffff1681526020019081526020016000206002018054600181600116156101000203166002900480601f0160208091040260200160405190810160405280929190818152602001828054600181600116156101000203166002900480156200116f5780601f1062001143576101008083540402835291602001916200116f565b820191906000526020600020905b8154815290600101906020018083116200115157829003601f168201915b50505050506000898960405180838380828437820191505092505050908152602001604051809103902060030160003373ffffffffffffffffffffffffffffffffffffffff1673ffffffffffffffffffffffffffffffffffffffff168152602001908152602001600020600301546001900462001d7a565b81526020016000600102600019168152509050806000868660405180838380828437820191505092505050908152602001604051809103902060030160008573ffffffffffffffffffffffffffffffffffffffff1673ffffffffffffffffffffffffffffffffffffffff16815260200190815260200160002060008201518160000160006101000a81548173ffffffffffffffffffffffffffffffffffffffff021916908373ffffffffffffffffffffffffffffffffffffffff16021790555060208201518160010160006101000a81548173ffffffffffffffffffffffffffffffffffffffff021916908373ffffffffffffffffffffffffffffffffffffffff16021790555060408201518160010160146101000a81548160ff02191690831515021790555060608201518160010160156101000a81548160ff02191690831515021790555060808201518160020190805190602001906200134c9291906200264b565b5060a082015181600301906000191690559050507fd798f2db00f1eb83535b14311fb9bacaa17a0089e8ed0bbf2b762b0d820f10e53384604051808373ffffffffffffffffffffffffffffffffffffffff1673ffffffffffffffffffffffffffffffffffffffff1681526020018273ffffffffffffffffffffffffffffffffffffffff1673ffffffffffffffffffffffffffffffffffffffff1681526020019250505060405180910390a17f4b718d41810e7bf6233c4593d14036e89516c13627b24bc289f86a3a3af6640a81608001516040518080602001828103825283818151815260200191508051906020019080838360005b838110156200145f57808201518184015260208101905062001442565b50505050905090810190601f1680156200148d5780820380516001836020036101000a031916815260200191505b509250505060405180910390a160019150620014fa565b7fc80ce3124a35653a627221b7066f9731323ad6bdacaa7a3d0627cab946a37f048585604051808060200182810382528484828181526020019250808284378201915050935050505060405180910390a1600091505b509392505050565b3373ffffffffffffffffffffffffffffffffffffffff16600260009054906101000a900473ffffffffffffffffffffffffffffffffffffffff1673ffffffffffffffffffffffffffffffffffffffff161415156200155f57600080fd5b60016000848460405180838380828437820191505092505050908152602001604051809103902060030160008373ffffffffffffffffffffffffffffffffffffffff1673ffffffffffffffffffffffffffffffffffffffff16815260200190815260200160002060010160146101000a81548160ff0219169083151502179055507fe7fcbd71bc046eba8545f3bb87877f454594a44e67865622904cadb6944eb8d881604051808273ffffffffffffffffffffffffffffffffffffffff1673ffffffffffffffffffffffffffffffffffffffff16815260200191505060405180910390a1505050565b600260009054906101000a900473ffffffffffffffffffffffffffffffffffffffff1681565b60008060006001151560008888604051808383808284378201915050925050509081526020016040518091039020600401868660405180838380828437820191505092505050908152602001604051809103902060003373ffffffffffffffffffffffffffffffffffffffff1673ffffffffffffffffffffffffffffffffffffffff16815260200190815260200160002060009054906101000a900460ff161515141515156200171d57600080fd5b6200185f85858080601f0160208091040260200160405190810160405280939291908181526020018383808284378201915050505050506000898960405180838380828437820191505092505050908152602001604051809103902060030160003373ffffffffffffffffffffffffffffffffffffffff1673ffffffffffffffffffffffffffffffffffffffff1681526020019081526020016000206002018054600181600116156101000203166002900480601f016020809104026020016040519081016040528092919081815260200182805460018160011615610100020316600290048015620018545780601f10620018285761010080835404028352916020019162001854565b820191906000526020600020905b8154815290600101906020018083116200183657829003601f168201915b505050505062002290565b1515156200186c57600080fd5b600115156000888860405180838380828437820191505092505050908152602001604051809103902060030160003373ffffffffffffffffffffffffffffffffffffffff1673ffffffffffffffffffffffffffffffffffffffff16815260200190815260200160002060010160149054906101000a900460ff16151514151515620018f657600080fd5b62001a9c62001a5962001a0d60008a8a60405180838380828437820191505092505050908152602001604051809103902060030160003373ffffffffffffffffffffffffffffffffffffffff1673ffffffffffffffffffffffffffffffffffffffff1681526020019081526020016000206002018054600181600116156101000203166002900480601f01602080910402602001604051908101604052809291908181526020018280546001816001161561010002031660029004801562001a025780601f10620019d65761010080835404028352916020019162001a02565b820191906000526020600020905b815481529060010190602001808311620019e457829003601f168201915b50505050506200236d565b62001a4a88888080601f0160208091040260200160405190810160405280939291908181526020018383808284378201915050505050506200236d565b6200239d90919063ffffffff16565b62001a9687878080601f0160208091040260200160405190810160405280939291908181526020018383808284378201915050505050506200236d565b620023f3565b9150811562001d70576001600088886040518083838082843782019150509250505090815260200160405180910390206002015410151562001d31576001600088886040518083838082843782019150509250505090815260200160405180910390206002015403600088886040518083838082843782019150509250505090815260200160405180910390206002018190555060019050600560009054906101000a900473ffffffffffffffffffffffffffffffffffffffff1673ffffffffffffffffffffffffffffffffffffffff166340c10f1933836000604051602001526040518363ffffffff167c0100000000000000000000000000000000000000000000000000000000028152600401808373ffffffffffffffffffffffffffffffffffffffff1673ffffffffffffffffffffffffffffffffffffffff16815260200182815260200192505050602060405180830381600087803b151562001c0257600080fd5b6102c65a03f1151562001c1457600080fd5b50505060405180519050507fb453a974b24942257e8e20e7dddfe0036550a433565458f02eb6e1e16a6daed23382604051808373ffffffffffffffffffffffffffffffffffffffff1673ffffffffffffffffffffffffffffffffffffffff1681526020018281526020019250505060405180910390a1600160008888604051808383808284378201915050925050509081526020016040518091039020600401868660405180838380828437820191505092505050908152602001604051809103902060003373ffffffffffffffffffffffffffffffffffffffff1673ffffffffffffffffffffffffffffffffffffffff16815260200190815260200160002060006101000a81548160ff02191690831515021790555062001d6f565b600180888860405180838380828437820191505092505050908152602001604051809103902060006101000a81548160ff0219169083151502179055505b5b5050949350505050565b62001d84620026d2565b600062001d90620026e6565b60008062001d9d620026e6565b62001da7620026e6565b6000606496508660405180591062001dbc5750595b9080825280601f01601f19166020018201604052509550600094505b60008914151562001e7457600a8981151562001df057fe5b069350600a8981151562001e0057fe5b049850836030017f010000000000000000000000000000000000000000000000000000000000000002868680600101975081518110151562001e3e57fe5b9060200101907effffffffffffffffffffffffffffffffffffffffffffffffffffffffffffff1916908160001a90535062001dd8565b8992508483510160405180591062001e895750595b9080825280601f01601f19166020018201604052509150600090505b825181101562001f5657828181518110151562001ebe57fe5b9060200101517f010000000000000000000000000000000000000000000000000000000000000090047f010000000000000000000000000000000000000000000000000000000000000002828281518110151562001f1857fe5b9060200101907effffffffffffffffffffffffffffffffffffffffffffffffffffffffffffff1916908160001a905350808060010191505062001ea5565b600090505b8481101562002013578581600187030381518110151562001f7857fe5b9060200101517f010000000000000000000000000000000000000000000000000000000000000090047f010000000000000000000000000000000000000000000000000000000000000002828451830181518110151562001fd557fe5b9060200101907effffffffffffffffffffffffffffffffffffffffffffffffffffffffffffff1916908160001a905350808060010191505062001f5b565b8197505050505050505092915050565b6200202d620026d2565b60035460008484604051808383808284378201915050925050509081526020016040518091039020600201541015620020b2577f55e585e64b3b0d1e7085235874d1377520ab56085d80ac131db0d86f7b7faea68383604051808060200182810382528484828181526020019250808284378201915050935050505060405180910390a15b600083836040518083838082843782019150509250505090815260200160405180910390206000018054600181600116156101000203166002900480601f016020809104026020016040519081016040528092919081815260200182805460018160011615610100020316600290048015620021725780601f10620021465761010080835404028352916020019162002172565b820191906000526020600020905b8154815290600101906020018083116200215457829003601f168201915b5050505050905092915050565b6000600560009054906101000a900473ffffffffffffffffffffffffffffffffffffffff1673ffffffffffffffffffffffffffffffffffffffff166370a08231836000604051602001526040518263ffffffff167c0100000000000000000000000000000000000000000000000000000000028152600401808273ffffffffffffffffffffffffffffffffffffffff1673ffffffffffffffffffffffffffffffffffffffff168152602001915050602060405180830381600087803b15156200224757600080fd5b6102c65a03f115156200225957600080fd5b505050604051805190509050919050565b600560009054906101000a900473ffffffffffffffffffffffffffffffffffffffff1681565b6000816040518082805190602001908083835b602083101515620022ca5780518252602082019150602081019050602083039250620022a3565b6001836020036101000a038019825116818451168082178552505050505050905001915050604051809103902060001916836040518082805190602001908083835b6020831015156200233357805182526020820191506020810190506020830392506200230c565b6001836020036101000a03801982511681845116808217855250505050505090500191505060405180910390206000191614905092915050565b62002377620026fa565b600060208301905060408051908101604052808451815260200182815250915050919050565b620023a7620026fa565b6000620023c784600001518560200151856000015186602001516200240b565b905083602001518103846000018181510391508181525050808460200181815250508391505092915050565b600080620024028484620024d0565b14905092915050565b60008060008060008887111515620024be57602087111515620024715760018760200360080260020a031980875116888b038a018a96505b818388511614620024655760018701965080600188031062002443578b8b0196505b505050839450620024c4565b8686209150879350600092505b86890383111515620024bd578684209050806000191682600019161415620024a957839450620024c4565b60018401935082806001019350506200247e565b5b88880194505b50505050949350505050565b60008060008060008060008060008a6000015197508a600001518a600001511015620024fe57896000015197505b8a60200151965089602001519550600094505b878510156200257457865193508551925082841415156200255c57600185896020030160080260020a031991508183168285160390506000811415156200255b5780985062002582565b5b60208701965060208601955060208501945062002511565b89600001518b600001510398505b505050505050505092915050565b608060405190810160405280620025a662002714565b8152602001600073ffffffffffffffffffffffffffffffffffffffff168152602001600015158152602001600081525090565b60c060405190810160405280600073ffffffffffffffffffffffffffffffffffffffff168152602001600073ffffffffffffffffffffffffffffffffffffffff1681526020016000151581526020016000151581526020016200263b62002714565b8152602001600080191681525090565b828054600181600116156101000203166002900490600052602060002090601f016020900481019282601f106200268e57805160ff1916838001178555620026bf565b82800160010185558215620026bf579182015b82811115620026be578251825591602001919060010190620026a1565b5b509050620026ce919062002728565b5090565b602060405190810160405280600081525090565b602060405190810160405280600081525090565b604080519081016040528060008152602001600081525090565b602060405190810160405280600081525090565b6200274d91905b80821115620027495760008160009055506001016200272f565b5090565b90565b60006200275c62002778565b604051809103906000f08015156200277357600080fd5b905090565b604051611a43806200278a83390190560060606040526000600360146101000a81548160ff0219169083151502179055506040805190810160405280600a81526020017f545249414c20434f494e00000000000000000000000000000000000000000000815250600490805190602001906200006c9291906200011e565b506040805190810160405280600381526020017f545249000000000000000000000000000000000000000000000000000000000081525060059080519060200190620000ba9291906200011e565b506012600660006101000a81548160ff021916908360ff16021790555033600360006101000a81548173ffffffffffffffffffffffffffffffffffffffff021916908373ffffffffffffffffffffffffffffffffffffffff160217905550620001cd565b828054600181600116156101000203166002900490600052602060002090601f016020900481019282601f106200016157805160ff191683800117855562000192565b8280016001018555821562000192579182015b828111156200019157825182559160200191906001019062000174565b5b509050620001a19190620001a5565b5090565b620001ca91905b80821115620001c6576000816000905550600101620001ac565b5090565b90565b61186680620001dd6000396000f3006060604052600436106100e6576000357c0100000000000000000000000000000000000000000000000000000000900463ffffffff16806305d2035b146100eb57806306fdde0314610118578063095ea7b3146101a657806318160ddd1461020057806323b872dd14610229578063313ce567146102a257806340c10f19146102d1578063661884631461032b57806370a08231146103855780637d64bcb4146103d25780638da5cb5b146103ff57806395d89b4114610454578063a9059cbb146104e2578063d73dd6231461053c578063dd62ed3e14610596578063f2fde38b14610602575b600080fd5b34156100f657600080fd5b6100fe61063b565b604051808215151515815260200191505060405180910390f35b341561012357600080fd5b61012b61064e565b6040518080602001828103825283818151815260200191508051906020019080838360005b8381101561016b578082015181840152602081019050610150565b50505050905090810190601f1680156101985780820380516001836020036101000a031916815260200191505b509250505060405180910390f35b34156101b157600080fd5b6101e6600480803573ffffffffffffffffffffffffffffffffffffffff169060200190919080359060200190919050506106ec565b604051808215151515815260200191505060405180910390f35b341561020b57600080fd5b6102136107de565b6040518082815260200191505060405180910390f35b341561023457600080fd5b610288600480803573ffffffffffffffffffffffffffffffffffffffff1690602001909190803573ffffffffffffffffffffffffffffffffffffffff169060200190919080359060200190919050506107e4565b604051808215151515815260200191505060405180910390f35b34156102ad57600080fd5b6102b5610ba3565b604051808260ff1660ff16815260200191505060405180910390f35b34156102dc57600080fd5b610311600480803573ffffffffffffffffffffffffffffffffffffffff16906020019091908035906020019091905050610bb6565b604051808215151515815260200191505060405180910390f35b341561033657600080fd5b61036b600480803573ffffffffffffffffffffffffffffffffffffffff16906020019091908035906020019091905050610d9e565b604051808215151515815260200191505060405180910390f35b341561039057600080fd5b6103bc600480803573ffffffffffffffffffffffffffffffffffffffff1690602001909190505061102f565b6040518082815260200191505060405180910390f35b34156103dd57600080fd5b6103e5611078565b604051808215151515815260200191505060405180910390f35b341561040a57600080fd5b610412611140565b604051808273ffffffffffffffffffffffffffffffffffffffff1673ffffffffffffffffffffffffffffffffffffffff16815260200191505060405180910390f35b341561045f57600080fd5b610467611166565b6040518080602001828103825283818151815260200191508051906020019080838360005b838110156104a757808201518184015260208101905061048c565b50505050905090810190601f1680156104d45780820380516001836020036101000a031916815260200191505b509250505060405180910390f35b34156104ed57600080fd5b610522600480803573ffffffffffffffffffffffffffffffffffffffff16906020019091908035906020019091905050611204565b604051808215151515815260200191505060405180910390f35b341561054757600080fd5b61057c600480803573ffffffffffffffffffffffffffffffffffffffff16906020019091908035906020019091905050611428565b604051808215151515815260200191505060405180910390f35b34156105a157600080fd5b6105ec600480803573ffffffffffffffffffffffffffffffffffffffff1690602001909190803573ffffffffffffffffffffffffffffffffffffffff16906020019091905050611624565b6040518082815260200191505060405180910390f35b341561060d57600080fd5b610639600480803573ffffffffffffffffffffffffffffffffffffffff169060200190919050506116ab565b005b600360149054906101000a900460ff1681565b60048054600181600116156101000203166002900480601f0160208091040260200160405190810160405280929190818152602001828054600181600116156101000203166002900480156106e45780601f106106b9576101008083540402835291602001916106e4565b820191906000526020600020905b8154815290600101906020018083116106c757829003601f168201915b505050505081565b600081600260003373ffffffffffffffffffffffffffffffffffffffff1673ffffffffffffffffffffffffffffffffffffffff16815260200190815260200160002060008573ffffffffffffffffffffffffffffffffffffffff1673ffffffffffffffffffffffffffffffffffffffff168152602001908152602001600020819055508273ffffffffffffffffffffffffffffffffffffffff163373ffffffffffffffffffffffffffffffffffffffff167f8c5be1e5ebec7d5bd14f71427d1e84f3dd0314c0f7b2291e5b200ac8c7c3b925846040518082815260200191505060405180910390a36001905092915050565b60005481565b60008073ffffffffffffffffffffffffffffffffffffffff168373ffffffffffffffffffffffffffffffffffffffff161415151561082157600080fd5b600160008573ffffffffffffffffffffffffffffffffffffffff1673ffffffffffffffffffffffffffffffffffffffff16815260200190815260200160002054821115151561086f57600080fd5b600260008573ffffffffffffffffffffffffffffffffffffffff1673ffffffffffffffffffffffffffffffffffffffff16815260200190815260200160002060003373ffffffffffffffffffffffffffffffffffffffff1673ffffffffffffffffffffffffffffffffffffffff1681526020019081526020016000205482111515156108fa57600080fd5b61094c82600160008773ffffffffffffffffffffffffffffffffffffffff1673ffffffffffffffffffffffffffffffffffffffff1681526020019081526020016000205461180390919063ffffffff16565b600160008673ffffffffffffffffffffffffffffffffffffffff1673ffffffffffffffffffffffffffffffffffffffff168152602001908152602001600020819055506109e182600160008673ffffffffffffffffffffffffffffffffffffffff1673ffffffffffffffffffffffffffffffffffffffff1681526020019081526020016000205461181c90919063ffffffff16565b600160008573ffffffffffffffffffffffffffffffffffffffff1673ffffffffffffffffffffffffffffffffffffffff16815260200190815260200160002081905550610ab382600260008773ffffffffffffffffffffffffffffffffffffffff1673ffffffffffffffffffffffffffffffffffffffff16815260200190815260200160002060003373ffffffffffffffffffffffffffffffffffffffff1673ffffffffffffffffffffffffffffffffffffffff1681526020019081526020016000205461180390919063ffffffff16565b600260008673ffffffffffffffffffffffffffffffffffffffff1673ffffffffffffffffffffffffffffffffffffffff16815260200190815260200160002060003373ffffffffffffffffffffffffffffffffffffffff1673ffffffffffffffffffffffffffffffffffffffff168152602001908152602001600020819055508273ffffffffffffffffffffffffffffffffffffffff168473ffffffffffffffffffffffffffffffffffffffff167fddf252ad1be2c89b69c2b068fc378daa952ba7f163c4a11628f55a4df523b3ef846040518082815260200191505060405180910390a3600190509392505050565b600660009054906101000a900460ff1681565b6000600360009054906101000a900473ffffffffffffffffffffffffffffffffffffffff1673ffffffffffffffffffffffffffffffffffffffff163373ffffffffffffffffffffffffffffffffffffffff16141515610c1457600080fd5b600360149054906101000a900460ff16151515610c3057600080fd5b610c458260005461181c90919063ffffffff16565b600081905550610c9d82600160008673ffffffffffffffffffffffffffffffffffffffff1673ffffffffffffffffffffffffffffffffffffffff1681526020019081526020016000205461181c90919063ffffffff16565b600160008573ffffffffffffffffffffffffffffffffffffffff1673ffffffffffffffffffffffffffffffffffffffff168152602001908152602001600020819055508273ffffffffffffffffffffffffffffffffffffffff167f0f6798a560793a54c3bcfe86a93cde1e73087d944c0ea20544137d4121396885836040518082815260200191505060405180910390a28273ffffffffffffffffffffffffffffffffffffffff16600073ffffffffffffffffffffffffffffffffffffffff167fddf252ad1be2c89b69c2b068fc378daa952ba7f163c4a11628f55a4df523b3ef846040518082815260200191505060405180910390a36001905092915050565b600080600260003373ffffffffffffffffffffffffffffffffffffffff1673ffffffffffffffffffffffffffffffffffffffff16815260200190815260200160002060008573ffffffffffffffffffffffffffffffffffffffff1673ffffffffffffffffffffffffffffffffffffffff16815260200190815260200160002054905080831115610eaf576000600260003373ffffffffffffffffffffffffffffffffffffffff1673ffffffffffffffffffffffffffffffffffffffff16815260200190815260200160002060008673ffffffffffffffffffffffffffffffffffffffff1673ffffffffffffffffffffffffffffffffffffffff16815260200190815260200160002081905550610f43565b610ec2838261180390919063ffffffff16565b600260003373ffffffffffffffffffffffffffffffffffffffff1673ffffffffffffffffffffffffffffffffffffffff16815260200190815260200160002060008673ffffffffffffffffffffffffffffffffffffffff1673ffffffffffffffffffffffffffffffffffffffff168152602001908152602001600020819055505b8373ffffffffffffffffffffffffffffffffffffffff163373ffffffffffffffffffffffffffffffffffffffff167f8c5be1e5ebec7d5bd14f71427d1e84f3dd0314c0f7b2291e5b200ac8c7c3b925600260003373ffffffffffffffffffffffffffffffffffffffff1673ffffffffffffffffffffffffffffffffffffffff16815260200190815260200160002060008873ffffffffffffffffffffffffffffffffffffffff1673ffffffffffffffffffffffffffffffffffffffff168152602001908152602001600020546040518082815260200191505060405180910390a3600191505092915050565b6000600160008373ffffffffffffffffffffffffffffffffffffffff1673ffffffffffffffffffffffffffffffffffffffff168152602001908152602001600020549050919050565b6000600360009054906101000a900473ffffffffffffffffffffffffffffffffffffffff1673ffffffffffffffffffffffffffffffffffffffff163373ffffffffffffffffffffffffffffffffffffffff161415156110d657600080fd5b600360149054906101000a900460ff161515156110f257600080fd5b6001600360146101000a81548160ff0219169083151502179055507fae5184fba832cb2b1f702aca6117b8d265eaf03ad33eb133f19dde0f5920fa0860405160405180910390a16001905090565b600360009054906101000a900473ffffffffffffffffffffffffffffffffffffffff1681565b60058054600181600116156101000203166002900480601f0160208091040260200160405190810160405280929190818152602001828054600181600116156101000203166002900480156111fc5780601f106111d1576101008083540402835291602001916111fc565b820191906000526020600020905b8154815290600101906020018083116111df57829003601f168201915b505050505081565b60008073ffffffffffffffffffffffffffffffffffffffff168373ffffffffffffffffffffffffffffffffffffffff161415151561124157600080fd5b600160003373ffffffffffffffffffffffffffffffffffffffff1673ffffffffffffffffffffffffffffffffffffffff16815260200190815260200160002054821115151561128f57600080fd5b6112e182600160003373ffffffffffffffffffffffffffffffffffffffff1673ffffffffffffffffffffffffffffffffffffffff1681526020019081526020016000205461180390919063ffffffff16565b600160003373ffffffffffffffffffffffffffffffffffffffff1673ffffffffffffffffffffffffffffffffffffffff1681526020019081526020016000208190555061137682600160008673ffffffffffffffffffffffffffffffffffffffff1673ffffffffffffffffffffffffffffffffffffffff1681526020019081526020016000205461181c90919063ffffffff16565b600160008573ffffffffffffffffffffffffffffffffffffffff1673ffffffffffffffffffffffffffffffffffffffff168152602001908152602001600020819055508273ffffffffffffffffffffffffffffffffffffffff163373ffffffffffffffffffffffffffffffffffffffff167fddf252ad1be2c89b69c2b068fc378daa952ba7f163c4a11628f55a4df523b3ef846040518082815260200191505060405180910390a36001905092915050565b60006114b982600260003373ffffffffffffffffffffffffffffffffffffffff1673ffffffffffffffffffffffffffffffffffffffff16815260200190815260200160002060008673ffffffffffffffffffffffffffffffffffffffff1673ffffffffffffffffffffffffffffffffffffffff1681526020019081526020016000205461181c90919063ffffffff16565b600260003373ffffffffffffffffffffffffffffffffffffffff1673ffffffffffffffffffffffffffffffffffffffff16815260200190815260200160002060008573ffffffffffffffffffffffffffffffffffffffff1673ffffffffffffffffffffffffffffffffffffffff168152602001908152602001600020819055508273ffffffffffffffffffffffffffffffffffffffff163373ffffffffffffffffffffffffffffffffffffffff167f8c5be1e5ebec7d5bd14f71427d1e84f3dd0314c0f7b2291e5b200ac8c7c3b925600260003373ffffffffffffffffffffffffffffffffffffffff1673ffffffffffffffffffffffffffffffffffffffff16815260200190815260200160002060008773ffffffffffffffffffffffffffffffffffffffff1673ffffffffffffffffffffffffffffffffffffffff168152602001908152602001600020546040518082815260200191505060405180910390a36001905092915050565b6000600260008473ffffffffffffffffffffffffffffffffffffffff1673ffffffffffffffffffffffffffffffffffffffff16815260200190815260200160002060008373ffffffffffffffffffffffffffffffffffffffff1673ffffffffffffffffffffffffffffffffffffffff16815260200190815260200160002054905092915050565b600360009054906101000a900473ffffffffffffffffffffffffffffffffffffffff1673ffffffffffffffffffffffffffffffffffffffff163373ffffffffffffffffffffffffffffffffffffffff1614151561170757600080fd5b600073ffffffffffffffffffffffffffffffffffffffff168173ffffffffffffffffffffffffffffffffffffffff161415151561174357600080fd5b8073ffffffffffffffffffffffffffffffffffffffff16600360009054906101000a900473ffffffffffffffffffffffffffffffffffffffff1673ffffffffffffffffffffffffffffffffffffffff167f8be0079c531659141344cd1fd0a4f28419497f9722a3daafe3b4186f6b6457e060405160405180910390a380600360006101000a81548173ffffffffffffffffffffffffffffffffffffffff021916908373ffffffffffffffffffffffffffffffffffffffff16021790555050565b600082821115151561181157fe5b818303905092915050565b600080828401905083811015151561183057fe5b80915050929150505600a165627a7a7230582033e93982d9e89060ade41b54d465f8f2f098321241a29067daa0536e629194900029a165627a7a723058209cfe098d930228405ce57f1e1703c445274d6b4564517d88585268aa76c8ca44002960606040526000600360146101000a81548160ff0219169083151502179055506040805190810160405280600a81526020017f545249414c20434f494e00000000000000000000000000000000000000000000815250600490805190602001906200006c9291906200011e565b506040805190810160405280600381526020017f545249000000000000000000000000000000000000000000000000000000000081525060059080519060200190620000ba9291906200011e565b506012600660006101000a81548160ff021916908360ff16021790555033600360006101000a81548173ffffffffffffffffffffffffffffffffffffffff021916908373ffffffffffffffffffffffffffffffffffffffff160217905550620001cd565b828054600181600116156101000203166002900490600052602060002090601f016020900481019282601f106200016157805160ff191683800117855562000192565b8280016001018555821562000192579182015b828111156200019157825182559160200191906001019062000174565b5b509050620001a19190620001a5565b5090565b620001ca91905b80821115620001c6576000816000905550600101620001ac565b5090565b90565b61186680620001dd6000396000f3006060604052600436106100e6576000357c0100000000000000000000000000000000000000000000000000000000900463ffffffff16806305d2035b146100eb57806306fdde0314610118578063095ea7b3146101a657806318160ddd1461020057806323b872dd14610229578063313ce567146102a257806340c10f19146102d1578063661884631461032b57806370a08231146103855780637d64bcb4146103d25780638da5cb5b146103ff57806395d89b4114610454578063a9059cbb146104e2578063d73dd6231461053c578063dd62ed3e14610596578063f2fde38b14610602575b600080fd5b34156100f657600080fd5b6100fe61063b565b604051808215151515815260200191505060405180910390f35b341561012357600080fd5b61012b61064e565b6040518080602001828103825283818151815260200191508051906020019080838360005b8381101561016b578082015181840152602081019050610150565b50505050905090810190601f1680156101985780820380516001836020036101000a031916815260200191505b509250505060405180910390f35b34156101b157600080fd5b6101e6600480803573ffffffffffffffffffffffffffffffffffffffff169060200190919080359060200190919050506106ec565b604051808215151515815260200191505060405180910390f35b341561020b57600080fd5b6102136107de565b6040518082815260200191505060405180910390f35b341561023457600080fd5b610288600480803573ffffffffffffffffffffffffffffffffffffffff1690602001909190803573ffffffffffffffffffffffffffffffffffffffff169060200190919080359060200190919050506107e4565b604051808215151515815260200191505060405180910390f35b34156102ad57600080fd5b6102b5610ba3565b604051808260ff1660ff16815260200191505060405180910390f35b34156102dc57600080fd5b610311600480803573ffffffffffffffffffffffffffffffffffffffff16906020019091908035906020019091905050610bb6565b604051808215151515815260200191505060405180910390f35b341561033657600080fd5b61036b600480803573ffffffffffffffffffffffffffffffffffffffff16906020019091908035906020019091905050610d9e565b604051808215151515815260200191505060405180910390f35b341561039057600080fd5b6103bc600480803573ffffffffffffffffffffffffffffffffffffffff1690602001909190505061102f565b6040518082815260200191505060405180910390f35b34156103dd57600080fd5b6103e5611078565b604051808215151515815260200191505060405180910390f35b341561040a57600080fd5b610412611140565b604051808273ffffffffffffffffffffffffffffffffffffffff1673ffffffffffffffffffffffffffffffffffffffff16815260200191505060405180910390f35b341561045f57600080fd5b610467611166565b6040518080602001828103825283818151815260200191508051906020019080838360005b838110156104a757808201518184015260208101905061048c565b50505050905090810190601f1680156104d45780820380516001836020036101000a031916815260200191505b509250505060405180910390f35b34156104ed57600080fd5b610522600480803573ffffffffffffffffffffffffffffffffffffffff16906020019091908035906020019091905050611204565b604051808215151515815260200191505060405180910390f35b341561054757600080fd5b61057c600480803573ffffffffffffffffffffffffffffffffffffffff16906020019091908035906020019091905050611428565b604051808215151515815260200191505060405180910390f35b34156105a157600080fd5b6105ec600480803573ffffffffffffffffffffffffffffffffffffffff1690602001909190803573ffffffffffffffffffffffffffffffffffffffff16906020019091905050611624565b6040518082815260200191505060405180910390f35b341561060d57600080fd5b610639600480803573ffffffffffffffffffffffffffffffffffffffff169060200190919050506116ab565b005b600360149054906101000a900460ff1681565b60048054600181600116156101000203166002900480601f0160208091040260200160405190810160405280929190818152602001828054600181600116156101000203166002900480156106e45780601f106106b9576101008083540402835291602001916106e4565b820191906000526020600020905b8154815290600101906020018083116106c757829003601f168201915b505050505081565b600081600260003373ffffffffffffffffffffffffffffffffffffffff1673ffffffffffffffffffffffffffffffffffffffff16815260200190815260200160002060008573ffffffffffffffffffffffffffffffffffffffff1673ffffffffffffffffffffffffffffffffffffffff168152602001908152602001600020819055508273ffffffffffffffffffffffffffffffffffffffff163373ffffffffffffffffffffffffffffffffffffffff167f8c5be1e5ebec7d5bd14f71427d1e84f3dd0314c0f7b2291e5b200ac8c7c3b925846040518082815260200191505060405180910390a36001905092915050565b60005481565b60008073ffffffffffffffffffffffffffffffffffffffff168373ffffffffffffffffffffffffffffffffffffffff161415151561082157600080fd5b600160008573ffffffffffffffffffffffffffffffffffffffff1673ffffffffffffffffffffffffffffffffffffffff16815260200190815260200160002054821115151561086f57600080fd5b600260008573ffffffffffffffffffffffffffffffffffffffff1673ffffffffffffffffffffffffffffffffffffffff16815260200190815260200160002060003373ffffffffffffffffffffffffffffffffffffffff1673ffffffffffffffffffffffffffffffffffffffff1681526020019081526020016000205482111515156108fa57600080fd5b61094c82600160008773ffffffffffffffffffffffffffffffffffffffff1673ffffffffffffffffffffffffffffffffffffffff1681526020019081526020016000205461180390919063ffffffff16565b600160008673ffffffffffffffffffffffffffffffffffffffff1673ffffffffffffffffffffffffffffffffffffffff168152602001908152602001600020819055506109e182600160008673ffffffffffffffffffffffffffffffffffffffff1673ffffffffffffffffffffffffffffffffffffffff1681526020019081526020016000205461181c90919063ffffffff16565b600160008573ffffffffffffffffffffffffffffffffffffffff1673ffffffffffffffffffffffffffffffffffffffff16815260200190815260200160002081905550610ab382600260008773ffffffffffffffffffffffffffffffffffffffff1673ffffffffffffffffffffffffffffffffffffffff16815260200190815260200160002060003373ffffffffffffffffffffffffffffffffffffffff1673ffffffffffffffffffffffffffffffffffffffff1681526020019081526020016000205461180390919063ffffffff16565b600260008673ffffffffffffffffffffffffffffffffffffffff1673ffffffffffffffffffffffffffffffffffffffff16815260200190815260200160002060003373ffffffffffffffffffffffffffffffffffffffff1673ffffffffffffffffffffffffffffffffffffffff168152602001908152602001600020819055508273ffffffffffffffffffffffffffffffffffffffff168473ffffffffffffffffffffffffffffffffffffffff167fddf252ad1be2c89b69c2b068fc378daa952ba7f163c4a11628f55a4df523b3ef846040518082815260200191505060405180910390a3600190509392505050565b600660009054906101000a900460ff1681565b6000600360009054906101000a900473ffffffffffffffffffffffffffffffffffffffff1673ffffffffffffffffffffffffffffffffffffffff163373ffffffffffffffffffffffffffffffffffffffff16141515610c1457600080fd5b600360149054906101000a900460ff16151515610c3057600080fd5b610c458260005461181c90919063ffffffff16565b600081905550610c9d82600160008673ffffffffffffffffffffffffffffffffffffffff1673ffffffffffffffffffffffffffffffffffffffff1681526020019081526020016000205461181c90919063ffffffff16565b600160008573ffffffffffffffffffffffffffffffffffffffff1673ffffffffffffffffffffffffffffffffffffffff168152602001908152602001600020819055508273ffffffffffffffffffffffffffffffffffffffff167f0f6798a560793a54c3bcfe86a93cde1e73087d944c0ea20544137d4121396885836040518082815260200191505060405180910390a28273ffffffffffffffffffffffffffffffffffffffff16600073ffffffffffffffffffffffffffffffffffffffff167fddf252ad1be2c89b69c2b068fc378daa952ba7f163c4a11628f55a4df523b3ef846040518082815260200191505060405180910390a36001905092915050565b600080600260003373ffffffffffffffffffffffffffffffffffffffff1673ffffffffffffffffffffffffffffffffffffffff16815260200190815260200160002060008573ffffffffffffffffffffffffffffffffffffffff1673ffffffffffffffffffffffffffffffffffffffff16815260200190815260200160002054905080831115610eaf576000600260003373ffffffffffffffffffffffffffffffffffffffff1673ffffffffffffffffffffffffffffffffffffffff16815260200190815260200160002060008673ffffffffffffffffffffffffffffffffffffffff1673ffffffffffffffffffffffffffffffffffffffff16815260200190815260200160002081905550610f43565b610ec2838261180390919063ffffffff16565b600260003373ffffffffffffffffffffffffffffffffffffffff1673ffffffffffffffffffffffffffffffffffffffff16815260200190815260200160002060008673ffffffffffffffffffffffffffffffffffffffff1673ffffffffffffffffffffffffffffffffffffffff168152602001908152602001600020819055505b8373ffffffffffffffffffffffffffffffffffffffff163373ffffffffffffffffffffffffffffffffffffffff167f8c5be1e5ebec7d5bd14f71427d1e84f3dd0314c0f7b2291e5b200ac8c7c3b925600260003373ffffffffffffffffffffffffffffffffffffffff1673ffffffffffffffffffffffffffffffffffffffff16815260200190815260200160002060008873ffffffffffffffffffffffffffffffffffffffff1673ffffffffffffffffffffffffffffffffffffffff168152602001908152602001600020546040518082815260200191505060405180910390a3600191505092915050565b6000600160008373ffffffffffffffffffffffffffffffffffffffff1673ffffffffffffffffffffffffffffffffffffffff168152602001908152602001600020549050919050565b6000600360009054906101000a900473ffffffffffffffffffffffffffffffffffffffff1673ffffffffffffffffffffffffffffffffffffffff163373ffffffffffffffffffffffffffffffffffffffff161415156110d657600080fd5b600360149054906101000a900460ff161515156110f257600080fd5b6001600360146101000a81548160ff0219169083151502179055507fae5184fba832cb2b1f702aca6117b8d265eaf03ad33eb133f19dde0f5920fa0860405160405180910390a16001905090565b600360009054906101000a900473ffffffffffffffffffffffffffffffffffffffff1681565b60058054600181600116156101000203166002900480601f0160208091040260200160405190810160405280929190818152602001828054600181600116156101000203166002900480156111fc5780601f106111d1576101008083540402835291602001916111fc565b820191906000526020600020905b8154815290600101906020018083116111df57829003601f168201915b505050505081565b60008073ffffffffffffffffffffffffffffffffffffffff168373ffffffffffffffffffffffffffffffffffffffff161415151561124157600080fd5b600160003373ffffffffffffffffffffffffffffffffffffffff1673ffffffffffffffffffffffffffffffffffffffff16815260200190815260200160002054821115151561128f57600080fd5b6112e182600160003373ffffffffffffffffffffffffffffffffffffffff1673ffffffffffffffffffffffffffffffffffffffff1681526020019081526020016000205461180390919063ffffffff16565b600160003373ffffffffffffffffffffffffffffffffffffffff1673ffffffffffffffffffffffffffffffffffffffff1681526020019081526020016000208190555061137682600160008673ffffffffffffffffffffffffffffffffffffffff1673ffffffffffffffffffffffffffffffffffffffff1681526020019081526020016000205461181c90919063ffffffff16565b600160008573ffffffffffffffffffffffffffffffffffffffff1673ffffffffffffffffffffffffffffffffffffffff168152602001908152602001600020819055508273ffffffffffffffffffffffffffffffffffffffff163373ffffffffffffffffffffffffffffffffffffffff167fddf252ad1be2c89b69c2b068fc378daa952ba7f163c4a11628f55a4df523b3ef846040518082815260200191505060405180910390a36001905092915050565b60006114b982600260003373ffffffffffffffffffffffffffffffffffffffff1673ffffffffffffffffffffffffffffffffffffffff16815260200190815260200160002060008673ffffffffffffffffffffffffffffffffffffffff1673ffffffffffffffffffffffffffffffffffffffff1681526020019081526020016000205461181c90919063ffffffff16565b600260003373ffffffffffffffffffffffffffffffffffffffff1673ffffffffffffffffffffffffffffffffffffffff16815260200190815260200160002060008573ffffffffffffffffffffffffffffffffffffffff1673ffffffffffffffffffffffffffffffffffffffff168152602001908152602001600020819055508273ffffffffffffffffffffffffffffffffffffffff163373ffffffffffffffffffffffffffffffffffffffff167f8c5be1e5ebec7d5bd14f71427d1e84f3dd0314c0f7b2291e5b200ac8c7c3b925600260003373ffffffffffffffffffffffffffffffffffffffff1673ffffffffffffffffffffffffffffffffffffffff16815260200190815260200160002060008773ffffffffffffffffffffffffffffffffffffffff1673ffffffffffffffffffffffffffffffffffffffff168152602001908152602001600020546040518082815260200191505060405180910390a36001905092915050565b6000600260008473ffffffffffffffffffffffffffffffffffffffff1673ffffffffffffffffffffffffffffffffffffffff16815260200190815260200160002060008373ffffffffffffffffffffffffffffffffffffffff1673ffffffffffffffffffffffffffffffffffffffff16815260200190815260200160002054905092915050565b600360009054906101000a900473ffffffffffffffffffffffffffffffffffffffff1673ffffffffffffffffffffffffffffffffffffffff163373ffffffffffffffffffffffffffffffffffffffff1614151561170757600080fd5b600073ffffffffffffffffffffffffffffffffffffffff168173ffffffffffffffffffffffffffffffffffffffff161415151561174357600080fd5b8073ffffffffffffffffffffffffffffffffffffffff16600360009054906101000a900473ffffffffffffffffffffffffffffffffffffffff1673ffffffffffffffffffffffffffffffffffffffff167f8be0079c531659141344cd1fd0a4f28419497f9722a3daafe3b4186f6b6457e060405160405180910390a380600360006101000a81548173ffffffffffffffffffffffffffffffffffffffff021916908373ffffffffffffffffffffffffffffffffffffffff16021790555050565b600082821115151561181157fe5b818303905092915050565b600080828401905083811015151561183057fe5b80915050929150505600a165627a7a7230582033e93982d9e89060ade41b54d465f8f2f098321241a29067daa0536e629194900029",
  "source": "/*My concerns:\r\n1.) How do you insure that someone gives you the correct id? if you dont want to use ids as a means to find the file hash on the blockchain then how else will you find\r\nthem?\r\n\r\n2.)No real way of insuring that people dont abuse the system to get coins etc.\r\n\r\n\r\n**/\r\npragma solidity ^0.4.13;\r\n\r\n//1 instance of the smart contract per corporation/group that uses it. So the smart contract keeps track of all file distributors for that corporation/group.\r\n\r\nimport './TrialCoin.sol';\r\nimport \"./strings.sol\"; //gives you the ability to do string manipulations\r\ncontract Tree {\r\n\r\n    using strings for *;\r\n    \r\n    struct Distributor {\r\n        address referrer; //person who introduced you to the network\r\n        address distributor_add; //your address\r\n        bool isBanned;\r\n        bool isInit; //are you initialised\r\n        string disId; //your id, calculated from your height in the tree and your branch no starting from the left going right\r\n        bytes32 childrenNo; //how many children you have\r\n    }\r\n\r\n    \r\n    struct File {\r\n        string link; // ipfs hash\r\n        address committer; //file creator address\r\n        //Distributor[] distributors; //all the dstrubutors of this file\r\n        bool exists; \r\n        uint256 balance; //This is the credit that's left for this file. A file can only be distributed as long as credit remains for it. Each time it gets distributed, the credit decreases. This credit can be topped up.\r\n        //distrib map to check for bans\r\n        mapping(address => Distributor) distributorMap;\r\n\r\n        mapping(string => mapping(address => bool)) payed;\r\n    }\r\n    \r\n    // hash-map where bytes32 = id of file\r\n    mapping(string => File) files;\r\n\r\n    //distrib map to check for bans\r\n    //mapping(address => Distributor) distributorMap;\r\n    mapping(string => bool) outOfFunds;\r\n    //mapping(bytes32 => mapping(address => bool)) payed; //wether a distributor has been payed yet for a given file.\r\n    address public owner;\r\n\r\n    //the amount of funds attached to a contract that triggers a lowfund event\r\n    uint256 threshold;\r\n    //the rate of our token/eth\r\n    uint256 coinRate;\r\n\r\n    TrialCoin public token;\r\n    \r\n    modifier isUnique(string id) {\r\n        require(files[id].exists != true);\r\n        _;\r\n    }\r\n    \r\n    modifier onlyOwner{\r\n        require(owner == msg.sender);\r\n        _;\r\n    }\r\n    \r\n    event lowFunds(string id);\r\n\r\n    event noFunds(string id);\r\n\r\n    event checkForPayment(string disId);\r\n\r\n    event madePayment(address claimant, uint amount);\r\n\r\n    event addedDistributor(address parentAddress, address newAddress);\r\n\r\n    event newFile(address original_distributor);\r\n\r\n    event distributorBanned(address banned_distributor);\r\n    \r\n    function Tree(uint256 rate, uint256 lowFundCap){\r\n\r\n        owner = msg.sender;\r\n        coinRate = rate;\r\n        threshold = lowFundCap;\r\n        token = createTokenContract();\r\n        \r\n    }\r\n    \r\n    function addFile(string id, string link, address original_distributor) \r\n    payable \r\n    onlyOwner\r\n    isUnique(id) \r\n    {\r\n        // msg.sender is the committer\r\n        // e.g. BBC\r\n\r\n        //setup file info\r\n        // File storage file;\r\n        // file.link = link;\r\n        // file.committer = msg.sender;\r\n        // file.exists = true;\r\n        // file.balance = msg.value*coinRate;\r\n\r\n        File memory file = File({link:link, committer:msg.sender, exists:true, balance:msg.value*coinRate});\r\n\r\n        //setup distributor info\r\n        // Distributor storage distributor;\r\n        // distributor.referrer = msg.sender;\r\n        // distributor.distributor_add = original_distributor;\r\n        // distributor.isBanned = false;\r\n        // distributor.isInit = true;\r\n        // distributor.disId = \"0\";\r\n        // distributor.childrenNo = bytes32(0);\r\n\r\n        Distributor memory distributor = Distributor({referrer:msg.sender, distributor_add:original_distributor, \r\n            isBanned:false, isInit:true, disId:'0', childrenNo:bytes32(0)\r\n            });\r\n\r\n        //this might be problematic if you want original_distributor to be dynamic\r\n\r\n        //store the data\r\n        //file.distributors.push(distributor);\r\n        files[id] = file;\r\n\r\n        files[id].distributorMap[original_distributor] = distributor;\r\n\r\n        newFile(original_distributor);\r\n        \r\n    }\r\n\r\n\r\n    //The organisation/group that owns the file and hence this contract can increase the balance/credit for a file so it can be distributed more.\r\n    function topUp(string id) external payable onlyOwner{\r\n        //not sure what to do with the ether that amasses on the contract\r\n        uint256 topUpAmt = msg.value*coinRate;\r\n\r\n        files[id].balance = files[id].balance + topUpAmt;        \r\n    }\r\n\r\n    //This is called by a person who is already a distributor. It allows a current distributor to add a new one.\r\n    //Also implements functionality allowing us to find the id of the inviter given an invitee.\r\n    function addDistributor(string id, address invitee) external returns(bool){\r\n\r\n        require(files[id].distributorMap[invitee].isBanned != true);\r\n        //could add a require to stop banned members from adding new distributors but they dont get paid for that anyway\r\n\r\n        require(files[id].distributorMap[invitee].isInit != true);\r\n\r\n        //if the file has associated funds hen set up a new distributor profile\r\n        if(outOfFunds[id] != true){\r\n\r\n            // Distributor storage distributor;\r\n            // distributor.referrer = msg.sender;\r\n            // distributor.distributor_add = invitee;\r\n            // distributor.isBanned = false;\r\n            // distributor.isInit = true;\r\n\r\n            // Distributor memory distributor = Distributor({referrer:msg.sender, distributor_add:invitee, \r\n            //     isBanned:false, isInit:true, disId:'', childrenNo:bytes32(0)});\r\n\r\n            //string memory childrenNoString = bytes32ToString(files[id].distributorMap[msg.sender].childrenNo); //create a string that contains callers childrenNo\r\n\r\n            files[id].distributorMap[msg.sender].childrenNo = bytes32(uint(files[id].distributorMap[msg.sender].childrenNo) + 1);\r\n\r\n            //string memory childrenNoString = bytes32ToString(files[id].distributorMap[msg.sender].childrenNo); //create a string that contains callers childrenNo\r\n\r\n            Distributor memory distributor = Distributor({referrer:msg.sender, distributor_add:invitee, \r\n                isBanned:false, isInit:true, disId:appendUintToString(files[id].distributorMap[msg.sender].disId,uint(files[id].distributorMap[msg.sender].childrenNo)), childrenNo:bytes32(0)});\r\n\r\n            //files[id].distributorMap[msg.sender].disId.toSlice().concat(childrenNoString.toSlice())\r\n            //distributor.disId = files[id].distributorMap[msg.sender].disId.toSlice().concat(childrenNoString.toSlice()); //the new distributors id is the old distributors id with their childrenNo on the end.\r\n\r\n            files[id].distributorMap[invitee] = distributor;\r\n\r\n            // files[id].distributors.push(distributor);\r\n\r\n            //files[id].balance = files[id].balance -1;\r\n\r\n            //could update this to draw from a finite pool set by contract creator\r\n            //token.mint(inviter, 1);\r\n            addedDistributor(msg.sender, invitee);\r\n            checkForPayment(distributor.disId);\r\n\r\n            return true;\r\n        }\r\n\r\n        else{\r\n            noFunds(id);\r\n            return false;\r\n        }\r\n\r\n    }\r\n\r\n\r\n    function makePayment(string fileId, string disId) external returns(bool){\r\n        //needs update for multiple files\r\n        require(files[fileId].payed[disId][msg.sender] != true);\r\n        //string yourDisId = _disId(fileId, msg.sender);\r\n        require(!compareStrings(disId, files[fileId].distributorMap[msg.sender].disId));\r\n        require(files[fileId].distributorMap[msg.sender].isBanned != true);\r\n\r\n        //match the disId of the claimant with the disId of the person a child/they signed up\r\n        //if there is a match then the claimant must have the new distributor as a child and they can be paid\r\n\r\n        //slice memory compare = disId.toSlice().find(distributorMap[msg.sender].disId.toSlice()); \r\n\r\n        bool check = strings.equals(disId.toSlice().find(files[fileId].distributorMap[msg.sender].disId.toSlice()),disId.toSlice());\r\n        if(check){ \r\n\r\n            if(files[fileId].balance >=1){\r\n\r\n                files[fileId].balance = files[fileId].balance -1;\r\n                //uint depth = files[fileId].distributorMap[msg.sender].disId.toSlice().len() - disId.toSlice().len();\r\n                uint quantity = 1;\r\n                token.mint(msg.sender, quantity);\r\n\r\n                madePayment(msg.sender, quantity);\r\n\r\n                files[fileId].payed[disId][msg.sender] = true; //they have now been paid so no more payments\r\n\r\n            }\r\n\r\n            else{\r\n                outOfFunds[fileId] = true;\r\n            }\r\n        }\r\n    }\r\n    \r\n    // Called by the end user\r\n    function getFile(string id) external returns(string){\r\n        //TODO: Who is the distributor? \r\n        //TODO: Does the file have enough funds to pay the chain of distribution? \r\n        //TODO: If so: Just do it! Move the funds, pay the distributors and deliver the file...\r\n       \r\n        //not sold on this, doing a for loop over distributors is pretty infeasible in the long term\r\n        /*\r\n        pay childDistributor;\r\n        for(childDistributor.parents...) {\r\n            pay parents;\r\n        }\r\n\r\n        **/\r\n        if(files[id].balance < threshold){\r\n            lowFunds(id);\r\n        }\r\n\r\n        return  files[id].link; //return ipfs hash\r\n\r\n    }\r\n\r\n    function createTokenContract() internal returns(TrialCoin){\r\n\r\n        return new TrialCoin();\r\n\r\n    }\r\n    \r\n    function banDistributor(string id, address distrib) external onlyOwner{\r\n\r\n        files[id].distributorMap[distrib].isBanned = true;\r\n        distributorBanned(distrib);\r\n        \r\n    }\r\n\r\n    function compareStrings (string a, string b) internal returns (bool){\r\n       return keccak256(a) == keccak256(b);\r\n   }\r\n\r\n    function getDisId(string fileId, address distrib) external returns(string){\r\n        return files[fileId].distributorMap[distrib].disId;\r\n    }\r\n\r\n    function getChildrenNo(string fileId, address distrib) external returns(bytes32){\r\n        return files[fileId].distributorMap[distrib].childrenNo;\r\n    }\r\n\r\n    function getBalance(address account) external returns(uint){\r\n\r\n        return token.balanceOf(account);\r\n\r\n    }\r\n\r\n    // function uintToString(uint v) constant returns (string str) {\r\n    //     uint maxlength = 100;\r\n    //     bytes memory reversed = new bytes(maxlength);\r\n    //     uint i = 0;\r\n    //     while (v != 0) {\r\n    //         uint remainder = v % 10;\r\n    //         v = v / 10;\r\n    //         reversed[i++] = byte(48 + remainder);\r\n    //     }\r\n    //     bytes memory s = new bytes(i);\r\n    //     for (uint j = 0; j < i; j++) {\r\n    //         s[j] = reversed[i - 1 - j];\r\n    //     }\r\n    //     str = string(s);\r\n    // }\r\n\r\n    function appendUintToString(string inStr, uint v) constant returns (string str) {\r\n        uint maxlength = 100;\r\n        bytes memory reversed = new bytes(maxlength);\r\n        uint i = 0;\r\n        while (v != 0) {\r\n            uint remainder = v % 10;\r\n            v = v / 10;\r\n            reversed[i++] = byte(48 + remainder);\r\n        }\r\n        bytes memory inStrb = bytes(inStr);\r\n        bytes memory s = new bytes(inStrb.length + i);\r\n        uint j;\r\n        for (j = 0; j < inStrb.length; j++) {\r\n            s[j] = inStrb[j];\r\n        }\r\n        for (j = 0; j < i; j++) {\r\n            s[j + inStrb.length] = reversed[i - 1 - j];\r\n        }\r\n        str = string(s);\r\n    }\r\n\r\n}",
  "sourcePath": "C:\\Users\\Flinn Dolman\\Documents\\Del-stuff\\contracts\\tree.sol",
  "compiler": {
    "name": "solc",
    "version": "0.4.18+commit.9cf6e910.Emscripten.clang"
  },
  "schemaVersion": "1.0.1",
  "updatedAt": "2018-02-23T13:52:54.324Z"
}